{"abi":[{"type":"constructor","inputs":[{"name":"entryPoint","type":"address","internalType":"address"}],"stateMutability":"nonpayable"},{"type":"receive","stateMutability":"payable"},{"type":"function","name":"execute","inputs":[{"name":"dest","type":"address","internalType":"address"},{"name":"value","type":"uint256","internalType":"uint256"},{"name":"functionData","type":"bytes","internalType":"bytes"}],"outputs":[],"stateMutability":"nonpayable"},{"type":"function","name":"getEntryPoint","inputs":[],"outputs":[{"name":"","type":"address","internalType":"address"}],"stateMutability":"view"},{"type":"function","name":"owner","inputs":[],"outputs":[{"name":"","type":"address","internalType":"address"}],"stateMutability":"view"},{"type":"function","name":"renounceOwnership","inputs":[],"outputs":[],"stateMutability":"nonpayable"},{"type":"function","name":"transferOwnership","inputs":[{"name":"newOwner","type":"address","internalType":"address"}],"outputs":[],"stateMutability":"nonpayable"},{"type":"function","name":"validateUserOp","inputs":[{"name":"userOp","type":"tuple","internalType":"struct PackedUserOperation","components":[{"name":"sender","type":"address","internalType":"address"},{"name":"nonce","type":"uint256","internalType":"uint256"},{"name":"initCode","type":"bytes","internalType":"bytes"},{"name":"callData","type":"bytes","internalType":"bytes"},{"name":"accountGasLimits","type":"bytes32","internalType":"bytes32"},{"name":"preVerificationGas","type":"uint256","internalType":"uint256"},{"name":"gasFees","type":"bytes32","internalType":"bytes32"},{"name":"paymasterAndData","type":"bytes","internalType":"bytes"},{"name":"signature","type":"bytes","internalType":"bytes"}]},{"name":"userOpHash","type":"bytes32","internalType":"bytes32"},{"name":"missingAccountFunds","type":"uint256","internalType":"uint256"}],"outputs":[{"name":"validationData","type":"uint256","internalType":"uint256"}],"stateMutability":"nonpayable"},{"type":"event","name":"OwnershipTransferred","inputs":[{"name":"previousOwner","type":"address","indexed":true,"internalType":"address"},{"name":"newOwner","type":"address","indexed":true,"internalType":"address"}],"anonymous":false},{"type":"error","name":"AbstractAccount__NotFromEntryPoint","inputs":[]},{"type":"error","name":"AbstractAccount__NotFromEntryPointOrOwner","inputs":[]},{"type":"error","name":"Account__CallFailed","inputs":[{"name":"","type":"bytes","internalType":"bytes"}]},{"type":"error","name":"ECDSAInvalidSignature","inputs":[]},{"type":"error","name":"ECDSAInvalidSignatureLength","inputs":[{"name":"length","type":"uint256","internalType":"uint256"}]},{"type":"error","name":"ECDSAInvalidSignatureS","inputs":[{"name":"s","type":"bytes32","internalType":"bytes32"}]},{"type":"error","name":"OwnableInvalidOwner","inputs":[{"name":"owner","type":"address","internalType":"address"}]},{"type":"error","name":"OwnableUnauthorizedAccount","inputs":[{"name":"account","type":"address","internalType":"address"}]}],"bytecode":{"object":"0x60a060405234801561001057600080fd5b506040516109c43803806109c483398101604081905261002f916100c0565b338061005557604051631e4fbdf760e01b81526000600482015260240160405180910390fd5b61005e81610070565b506001600160a01b03166080526100f0565b600080546001600160a01b038381166001600160a01b0319831681178455604051919092169283917f8be0079c531659141344cd1fd0a4f28419497f9722a3daafe3b4186f6b6457e09190a35050565b6000602082840312156100d257600080fd5b81516001600160a01b03811681146100e957600080fd5b9392505050565b6080516108ac6101186000396000818160a70152818161016101526101da01526108ac6000f3fe6080604052600436106100595760003560e01c806319822f7c1461006557806344ab613f14610098578063715018a6146100df5780638da5cb5b146100f6578063b61d27f614610114578063f2fde38b1461013457600080fd5b3661006057005b600080fd5b34801561007157600080fd5b5061008561008036600461069f565b610154565b6040519081526020015b60405180910390f35b3480156100a457600080fd5b507f00000000000000000000000000000000000000000000000000000000000000005b6040516001600160a01b03909116815260200161008f565b3480156100eb57600080fd5b506100f46101bb565b005b34801561010257600080fd5b506000546001600160a01b03166100c7565b34801561012057600080fd5b506100f461012f36600461070f565b6101cf565b34801561014057600080fd5b506100f461014f366004610799565b6102c7565b6000336001600160a01b037f0000000000000000000000000000000000000000000000000000000000000000161461019f57604051635e29036960e01b815260040160405180910390fd5b6101a98484610305565b90506101b4826103c6565b9392505050565b6101c361041f565b6101cd600061044c565b565b336001600160a01b037f0000000000000000000000000000000000000000000000000000000000000000161480159061021357506000546001600160a01b03163314155b1561023157604051632461a39f60e01b815260040160405180910390fd5b600080856001600160a01b031685858560405161024f9291906107b4565b60006040518083038185875af1925050503d806000811461028c576040519150601f19603f3d011682016040523d82523d6000602084013e610291565b606091505b5091509150816102bf578060405163ced27feb60e01b81526004016102b691906107c4565b60405180910390fd5b505050505050565b6102cf61041f565b6001600160a01b0381166102f957604051631e4fbdf760e01b8152600060048201526024016102b6565b6103028161044c565b50565b7f19457468657265756d205369676e6564204d6573736167653a0a3332000000006000908152601c829052603c8120600061038282610348610100880188610812565b8080601f01602080910402602001604051908101604052809392919081815260200183838082843760009201919091525061049c92505050565b90506103966000546001600160a01b031690565b6001600160a01b0316816001600160a01b0316146103b9576001925050506103c0565b6000925050505b92915050565b801561030257604051600090339060001990849084818181858888f193505050503d8060008114610413576040519150601f19603f3d011682016040523d82523d6000602084013e610418565b606091505b5050505050565b6000546001600160a01b031633146101cd5760405163118cdaa760e01b81523360048201526024016102b6565b600080546001600160a01b038381166001600160a01b0319831681178455604051919092169283917f8be0079c531659141344cd1fd0a4f28419497f9722a3daafe3b4186f6b6457e09190a35050565b6000806000806104ac86866104c6565b9250925092506104bc8282610513565b5090949350505050565b600080600083516041036105005760208401516040850151606086015160001a6104f2888285856105d0565b95509550955050505061050c565b50508151600091506002905b9250925092565b600082600381111561052757610527610860565b03610530575050565b600182600381111561054457610544610860565b036105625760405163f645eedf60e01b815260040160405180910390fd5b600282600381111561057657610576610860565b036105975760405163fce698f760e01b8152600481018290526024016102b6565b60038260038111156105ab576105ab610860565b036105cc576040516335e2f38360e21b8152600481018290526024016102b6565b5050565b600080807f7fffffffffffffffffffffffffffffff5d576e7357a4501ddfe92f46681b20a084111561060b5750600091506003905082610695565b604080516000808252602082018084528a905260ff891692820192909252606081018790526080810186905260019060a0016020604051602081039080840390855afa15801561065f573d6000803e3d6000fd5b5050604051601f1901519150506001600160a01b03811661068b57506000925060019150829050610695565b9250600091508190505b9450945094915050565b6000806000606084860312156106b457600080fd5b833567ffffffffffffffff8111156106cb57600080fd5b840161012081870312156106de57600080fd5b95602085013595506040909401359392505050565b80356001600160a01b038116811461070a57600080fd5b919050565b6000806000806060858703121561072557600080fd5b61072e856106f3565b935060208501359250604085013567ffffffffffffffff81111561075157600080fd5b8501601f8101871361076257600080fd5b803567ffffffffffffffff81111561077957600080fd5b87602082840101111561078b57600080fd5b949793965060200194505050565b6000602082840312156107ab57600080fd5b6101b4826106f3565b8183823760009101908152919050565b602081526000825180602084015260005b818110156107f257602081860181015160408684010152016107d5565b506000604082850101526040601f19601f83011684010191505092915050565b6000808335601e1984360301811261082957600080fd5b83018035915067ffffffffffffffff82111561084457600080fd5b60200191503681900382131561085957600080fd5b9250929050565b634e487b7160e01b600052602160045260246000fdfea26469706673582212207c1fd8c88204e23146e87118dca3a6a4dd65aced5616b42f76b255340688d2fe64736f6c634300081c0033","linkReferences":{}},"methodIdentifiers":{"execute(address,uint256,bytes)":"b61d27f6","getEntryPoint()":"44ab613f","owner()":"8da5cb5b","renounceOwnership()":"715018a6","transferOwnership(address)":"f2fde38b","validateUserOp((address,uint256,bytes,bytes,bytes32,uint256,bytes32,bytes,bytes),bytes32,uint256)":"19822f7c"},"id":59}